:1000000003308A00BC2B00000A108A100A118207F4
:1000100028340C3401340634201020102010C32260
:10002000D4242010201020100A1020102010C327E4
:10003000CC27CD27531020102000D4234F17A02207
:100040004E10C3274E2AD2274C108A20552ACF267D
:10005000412AC9214F104510492753002010A022E2
:10006000CC22432AD227CE24C32020100A102010ED
:100070002022C923492A4126202B20102000C420F9
:10008000D6244410CD2044294922201020102005D8
:10009000B11B31183019B01820102010201020107A
:1000A000201020100001C822432A4F292029D524DE
:1000B0005A10201020108A18B7183018321C371028
:1000C00020102010201020102000C320CD20432419
:1000D0004F10CD20D420201020102005B11B311846
:1000E0003018B51B20102010201020102000C3272E
:1000F0004E2A41224F292018AD1C3910C3274E0526
:10010000A026C5264F29C920A0224528D2274D1058
:100110000000A0294526C521C3244F2741292026B8
:1001200041100A10D622CC27C324C420C420441076
:10013000CD292000D622CC27C324C42044103D1052
:100140002526F512CC3A25267510201020100A100D
:10015000201020102010201020102010201020002F
:100160002023D522D22020224510D220CE234F108A
:10017000000120102010201020102010201020102E
:1001800020100001C32A4527D420A01EA0127510FC
:10019000201020108021A0294526C521C3244F27E7
:1001A0004129202641100A10D622CC27C324C4207E
:1001B000C4204410CD292000D620CC2752103D1059
:1001C000A53A201020102010200020102010201010
:1001D000201020102010201020100001D620CC2745
:1001E00052103D10A53A20102010201020002010A1
:1001F00020102010201020102010201020100000AF
:100200004930840083130008031914290130F800D1
:10021000F701F70B0929F80B08294A30F700F70B0B
:100220000F291229800B06290800500EF039F7001B
:100230000F30080577048800000008141F290810F3
:1002400008008810F030831688008312081500001B
:10025000081400000808080E0F39D000081000002C
:10026000081400000808080E0F39CF0008100030ED
:10027000831688008312500EF700F030F7057708D8
:100280004F04F8007808CF00CF1B22294D1C88109E
:100290004D18881400000811000008104E0ECF0001
:1002A0000F30CF054F08D00015214E080F39CF0071
:1002B000D0001521080000308316880083128810B2
:1002C000081108100F30C90000210130BF003F089D
:1002D000033C031C73290330D00015210530C900ED
:1002E0000021BF0A67290230D0001521BF013F0855
:1002F000033C031C84293F080420C000CD014008B2
:10030000CE002121BF0A77298A110A12072C4A0B35
:100310008A298D294030CB008E29CB01013049023A
:10032000CB074B088038CC00CD014C08CE002121F2
:10033000080048080C3A0319A429063A0319AC2905
:10034000023A0319B229B729CD010130CE0021218B
:100350000230C9000021BD290130C9000230CA00A5
:100360008721BD29CD011030CE002121BD290130CA
:10037000CD004808CE002121BD29080083160317AF
:100380008C170C140000000083120C087F3903192D
:10039000022A0313BF0003170D080313C00003173D
:1003A0000F080313C1003F08C80099214008031734
:1003B0008D000313410803178F0083168C170C144C
:1003C0000000000083120C0D0E0D7F390319022A64
:1003D0000313BF0003170D080313C00003170F0812
:1003E0000313C1003F08C8009921400803178D007E
:1003F0000313410803178F008D0A03198F0A031393
:10040000BE290317031308000130C900CA00872161
:100410000C3003178D0000308F000313BE21023013
:10042000BF00FA30C9000021BF0B112A0130C900FA
:10043000CA0087211D3003178D0000308F00031381
:10044000BE210230BF00FA30C9000021BF0B232AB1
:100450000130C900CA0087212E3003178D000030FB
:100460008F000313BE210230BF00FA30C900002103
:10047000BF0B352AA3012308023C031C722A230860
:100480000319492A013A0319552A033A0319612A23
:100490006D2A0130C900CA0087213F3003178D0043
:1004A00000308F000313BE216D2A0130C900CA003D
:1004B0008721533003178D0000308F000313BE21B6
:1004C0006D2A0130C900CA008721653003178D00ED
:1004D00000308F000313BE216D2AC830C9000021EF
:1004E000A30A3B2A0130C900CA00872177300317CD
:1004F0008D0000308F000313BE210230BF00FA30A0
:10050000C9000021BF0B7F2A8A110A12082CEF3084
:10051000A400A501A2012208033C031CAA2A03107F
:10052000A40C0508F039BF0024080F39BF043F08A8
:100530008500851FAA2AA50A051FAA2AA50A851EC5
:10054000AA2AA50A051EAA2AA50A1430C900002154
:10055000A20A8B2A0800831603178C170C140000BC
:1005600000000318DA2A83120C087F390313C10034
:1005700003170D080313C20003170F080313C3006A
:100580004108C8009921420803178D00031343084E
:1005900003178F0083168C170C14000000008312C1
:1005A0000313C00BD42AD72A83160317DA2AF92A91
:1005B0008316031783120C0D0E0D7F390313C10030
:1005C00003170D080313C20003170F080313C3001A
:1005D0004108C8009921420803178D0003134308FE
:1005E00003178F008D0A03198F0A03100313C00B22
:1005F000AB2A0800C7010408C6004710831B471434
:10060000400EF038C200C207E23EC300323EC500D1
:1006100040080F39C307C307C507E93EC400C40734
:10062000C4073F0E0F39C407C507C40DC50DC50962
:10063000C50D3F080F39C507C20D0730C1000A308C
:10064000C507C403031C202BC407C303031C242BAE
:10065000C307C203031C282BC207C103031C2C2B96
:100660004130840083130730460546138407453024
:100670000402031946170008F700031D472B461B09
:10068000472B461A592BC619472B20304A2BC61523
:1006900046123030F707C0010408BF004010831B2A
:1006A00040147708C80099213F088400831340183C
:1006B0008317840A461F372B08001030C500F70146
:1006C000FA01C20CC10C031C6B2B4308F70703187B
:1006D000FA0A4408FA07FA0CF70CF90CF80CC50BE7
:1006E000612B08004508F801420203187A2B4208E2
:1006F000F700862BF7010830C400C20DF70D430840
:1007000077020318F700F80DC40B7D2B080078085A
:100710004008C2006430C30072237708C000780824
:100720003030031D9A2BC11CA12BC119A12B411ADA
:1007300020309D2BC11141124114F8077808C800E0
:1007400099214008C2000A30C30072237708C00014
:1007500078083030031DB22BC119B62B411CB62BC3
:10076000411A2030F8077808C80099213030C007B6
:100770004008C80099210800840183131F308305B5
:10078000A001A101A201A301A401A501A601A80144
:10079000A701AA01A901AC01AB01AE01AD0183160D
:1007A00003170908C039890003131F129F12003074
:1007B0000317880083128701880189010130031320
:1007C000AF000230B0000330B1006530B200043039
:1007D000B3000530B4000630B5006630B60007300F
:1007E000B7000830B8000930B9006730BA00C83027
:1007F000BB00BC01C930BD006830BE00F0308316BC
:10080000850083120508F039BF0085005B29042AA2
:100810000130C900CA008721893003178D000030DC
:100820008F000313BE21A008031DD12C87222508A9
:100830000F3C031CD02C2F302507840083130008A5
:10084000093C031CC52CA908031D292CAA0803195F
:100850002D2C2A08AC002908AB00A708031D332C57
:10086000A8080319372C2808AA002708A9002F3048
:100870002507840083130008FA01A7007A08A8005E
:100880000130C900CA0087219A3003178D0000305B
:100890008F0003100C300313C000AB221030840013
:1008A0002C08C0002B08BF00FA22103084002A0850
:1008B000C0002908BF00FA22103084002808C000B8
:1008C0002708BF00FA22A43003178D0000308F00E4
:1008D000031416300313C000AB222C08C2002B08EF
:1008E000C100C4016430C3005D237908C0007808EA
:1008F000BF002A08C2002908C100C4010A30C30091
:100900005D237808BF0779080318790FC007270807
:100910003F07AD004008AE0028080318280FAE07B7
:10092000AE08031D972C2D08C73C0318992C0030E6
:100930009A2C0130BF002E08023C0318A62CFF3A67
:10094000031DA82C2D08843C031CA82C0030A92CC6
:1009500001303F040319B92C0130C9000230CA002C
:100960008721B03003178D0000308F000313BE21A4
:10097000C52C0130C9000230CA008721B9300317E5
:100980008D0000308F000313BE2125080C3C031D91
:10099000CB2C0130A000872225080F3C0318CB2C5C
:1009A000132C200BE82D013003178D0083168C13B8
:1009B0000C1483120C08FF3C0319EF2C0313A1083D
:1009C0000319E42C0317EF2C013003178D00831655
:1009D0008C130C1483120C080313A60003170313C3
:1009E0002608633C031CE72D200BE72D0130C900CE
:1009F000CA008721C23003178D0000308F0003101A
:100A000009300313C000AB222608C0001B30C10010
:100A10008723C73003178D0000308F000314053083
:100A20000313C000AB22872225080F3C031CD12DE5
:100A300025080C3C031D2D2D0130C900CA0087215B
:100A4000CB3003178D0000308F000313BE21A001AF
:100A5000872225080F3C0318282D2508033C031D79
:100A6000892D013003178D000313260803178C000E
:100A700083168C130C15831203130B08F7008B13CA
:100A80008316031755308D00AA308D008C148C18F6
:100A9000472D0C117708831203138B040130C90012
:100AA0000230CA008721013003178D0083168C1392
:100AB0000C1483120C080313BF00DC3003178D00E5
:100AC00000308F00031008300313C000AB223F0832
:100AD000C0001B30C1008723E13003178D000030B8
:100AE0008F00031007300313C000AB220430BF0097
:100AF000FA30C9000021BF0B782D0130C900023047
:100B0000CA008721E53003178D0000308F000313E2
:100B1000BE2125080F3C031DD12D013003178D0088
:100B200083168C130C1483120C0801300313C900B4
:100B30000230CA008721013003178D0083168C1301
:100B40000C1483120C080313BF00EE3003178D0042
:100B500000308F00031008300313C000AB223F08A1
:100B6000C0001B30C1008723F33003178D00003015
:100B70008F00031007300313C000AB220430BF0006
:100B8000FA30C9000021BF0BC02D0130C90002306E
:100B9000CA008721F73003178D0000308F00031340
:100BA000BE212E08BF00BF0ABF030319DB2DFF3093
:100BB000C9000021D42D2D08C9000021A60A26084D
:100BC000643C031DE62DA6010130A100F02CD12CC0
:040BD000132C63007F
:04400E00F420FF3E5D
:00000001FF
;PIC16F887
;CRC=5019  CREATED="15-Oct-20 14:23"
